{
  "contractName": "Crowdfunding",
  "abi": [
    {
      "inputs": [],
      "stateMutability": "nonpayable",
      "type": "constructor"
    },
    {
      "inputs": [
        {
          "internalType": "uint256",
          "name": "",
          "type": "uint256"
        },
        {
          "internalType": "address",
          "name": "",
          "type": "address"
        }
      ],
      "name": "haveParticipated",
      "outputs": [
        {
          "internalType": "bool",
          "name": "",
          "type": "bool"
        }
      ],
      "stateMutability": "view",
      "type": "function",
      "constant": true
    },
    {
      "inputs": [],
      "name": "numOfCampaign",
      "outputs": [
        {
          "internalType": "uint256",
          "name": "",
          "type": "uint256"
        }
      ],
      "stateMutability": "view",
      "type": "function",
      "constant": true
    },
    {
      "inputs": [
        {
          "internalType": "address payable",
          "name": "receiver",
          "type": "address"
        },
        {
          "internalType": "uint256",
          "name": "goal",
          "type": "uint256"
        }
      ],
      "name": "initiateCampaign",
      "outputs": [
        {
          "internalType": "uint256",
          "name": "campaignId",
          "type": "uint256"
        }
      ],
      "stateMutability": "nonpayable",
      "type": "function"
    },
    {
      "inputs": [
        {
          "internalType": "uint256",
          "name": "campaignId",
          "type": "uint256"
        }
      ],
      "name": "participateCampaign",
      "outputs": [],
      "stateMutability": "payable",
      "type": "function",
      "payable": true
    },
    {
      "inputs": [
        {
          "internalType": "uint256",
          "name": "campaignId",
          "type": "uint256"
        }
      ],
      "name": "withdraw",
      "outputs": [
        {
          "internalType": "bool",
          "name": "finished",
          "type": "bool"
        }
      ],
      "stateMutability": "nonpayable",
      "type": "function"
    }
  ],
  "bytecode": "0x60a060405234801561001057600080fd5b503373ffffffffffffffffffffffffffffffffffffffff1660808173ffffffffffffffffffffffffffffffffffffffff1681525050608051610876610060600039600061042601526108766000f3fe60806040526004361061004a5760003560e01c80632db593961461004f5780632e1a7d4d1461007a5780632ef89cc4146100b75780639b4d8de7146100d3578063de2fa7fc14610110575b600080fd5b34801561005b57600080fd5b5061006461014d565b604051610071919061054d565b60405180910390f35b34801561008657600080fd5b506100a1600480360381019061009c9190610599565b610153565b6040516100ae91906105e1565b60405180910390f35b6100d160048036038101906100cc9190610599565b61020e565b005b3480156100df57600080fd5b506100fa60048036038101906100f5919061065a565b6103f3565b60405161010791906105e1565b60405180910390f35b34801561011c57600080fd5b50610137600480360381019061013291906106d8565b610422565b604051610144919061054d565b60405180910390f35b60005481565b6000806001600084815260200190815260200160002090508060010154816003015410610184576000915050610209565b600081600301549050600082600301819055508160000160009054906101000a900473ffffffffffffffffffffffffffffffffffffffff1673ffffffffffffffffffffffffffffffffffffffff166108fc829081150290604051600060405180830381858888f19350505050158015610201573d6000803e3d6000fd5b506001925050505b919050565b80600015156003600083815260200190815260200160002060003373ffffffffffffffffffffffffffffffffffffffff1673ffffffffffffffffffffffffffffffffffffffff16815260200190815260200160002060009054906101000a900460ff1615151461027d57600080fd5b6000600160008481526020019081526020016000209050348160030160008282546102a89190610747565b9250508190555060018160020160008282546102c49190610747565b925050819055506002600084815260200190815260200160002060405180604001604052803373ffffffffffffffffffffffffffffffffffffffff16815260200134815250908060018154018082558091505060019003906000526020600020906002020160009091909190915060008201518160000160006101000a81548173ffffffffffffffffffffffffffffffffffffffff021916908373ffffffffffffffffffffffffffffffffffffffff16021790555060208201518160010155505060016003600085815260200190815260200160002060003373ffffffffffffffffffffffffffffffffffffffff1673ffffffffffffffffffffffffffffffffffffffff16815260200190815260200160002060006101000a81548160ff021916908315150217905550505050565b60036020528160005260406000206020528060005260406000206000915091509054906101000a900460ff1681565b60007f000000000000000000000000000000000000000000000000000000000000000073ffffffffffffffffffffffffffffffffffffffff163373ffffffffffffffffffffffffffffffffffffffff16146104b2576040517f08c379a00000000000000000000000000000000000000000000000000000000081526004016104a9906107d8565b60405180910390fd5b6000808154809291906104c4906107f8565b9190505590506000600160008381526020019081526020016000209050838160000160006101000a81548173ffffffffffffffffffffffffffffffffffffffff021916908373ffffffffffffffffffffffffffffffffffffffff1602179055508281600101819055505092915050565b6000819050919050565b61054781610534565b82525050565b6000602082019050610562600083018461053e565b92915050565b600080fd5b61057681610534565b811461058157600080fd5b50565b6000813590506105938161056d565b92915050565b6000602082840312156105af576105ae610568565b5b60006105bd84828501610584565b91505092915050565b60008115159050919050565b6105db816105c6565b82525050565b60006020820190506105f660008301846105d2565b92915050565b600073ffffffffffffffffffffffffffffffffffffffff82169050919050565b6000610627826105fc565b9050919050565b6106378161061c565b811461064257600080fd5b50565b6000813590506106548161062e565b92915050565b6000806040838503121561067157610670610568565b5b600061067f85828601610584565b925050602061069085828601610645565b9150509250929050565b60006106a5826105fc565b9050919050565b6106b58161069a565b81146106c057600080fd5b50565b6000813590506106d2816106ac565b92915050565b600080604083850312156106ef576106ee610568565b5b60006106fd858286016106c3565b925050602061070e85828601610584565b9150509250929050565b7f4e487b7100000000000000000000000000000000000000000000000000000000600052601160045260246000fd5b600061075282610534565b915061075d83610534565b925082820190508082111561077557610774610718565b5b92915050565b600082825260208201905092915050565b7f6f6e6c79206f7765720000000000000000000000000000000000000000000000600082015250565b60006107c260098361077b565b91506107cd8261078c565b602082019050919050565b600060208201905081810360008301526107f1816107b5565b9050919050565b600061080382610534565b91507fffffffffffffffffffffffffffffffffffffffffffffffffffffffffffffffff820361083557610834610718565b5b60018201905091905056fea264697066735822122084996083681200cddb3df285a69db7fcc9d15712c238d8e60077a75f0697eff264736f6c63430008120033",
  "immutableReferences": {
    "3": [
      {
        "length": 32,
        "start": 1062
      }
    ]
  },
  "source": "// SPDX-License-Identifier: MIT\r\npragma solidity ^0.8.18;\r\n\r\ncontract Crowdfunding {\r\n    address immutable owner;\r\n\r\n    constructor(){\r\n        owner = msg.sender;\r\n    }\r\n\r\n    struct CrowdCampaign {\r\n        address payable receiver;\r\n        uint goal;\r\n        uint number;\r\n        uint totalAmount;\r\n    }\r\n\r\n    struct Participating {\r\n        address  account;\r\n        uint amount;\r\n    }\r\n\r\n    uint public numOfCampaign;\r\n    mapping(uint => CrowdCampaign)  campaigns;\r\n    mapping(uint => Participating[])  users;\r\n\r\n    mapping(uint => mapping(address => bool)) public haveParticipated;\r\n\r\n    modifier IshaveParticipated(uint campaignId){\r\n        require(haveParticipated[campaignId][msg.sender] == false);\r\n        _;\r\n    }\r\n\r\n    modifier onlyOwner{\r\n        require(msg.sender == owner, \"only ower\");\r\n        _;\r\n    }\r\n\r\n    function initiateCampaign(address payable receiver, uint goal) external onlyOwner() returns (uint campaignId){\r\n        campaignId = numOfCampaign++;\r\n        CrowdCampaign storage campaign = campaigns[campaignId];\r\n        campaign.receiver = receiver;\r\n        campaign.goal = goal;\r\n    }\r\n\r\n    function participateCampaign(uint campaignId) external payable IshaveParticipated(campaignId) {\r\n        CrowdCampaign storage campaign = campaigns[campaignId];\r\n        campaign.totalAmount += msg.value;\r\n        campaign.number += 1;\r\n\r\n        users[campaignId].push(Participating(\r\n        {\r\n        account : msg.sender,\r\n        amount : msg.value\r\n        }\r\n        ));\r\n        haveParticipated[campaignId][msg.sender] = true;\r\n    }\r\n\r\n    function withdraw(uint campaignId) external returns (bool finished){\r\n        CrowdCampaign storage campaign = campaigns[campaignId];\r\n        if (campaign.totalAmount >= campaign.goal) {\r\n        return false;\r\n        }\r\n        uint amount = campaign.totalAmount;\r\n        campaign.totalAmount = 0;\r\n        campaign.receiver.transfer(amount);\r\n        return true;\r\n    }\r\n\r\n}\r\n",
  "sourcePath": "E:\\TruffleContractWorkplace\\truffle-first-contract\\contracts\\Crowdfunding.sol",
  "compiler": {
    "name": "solc",
    "version": "0.8.18+commit.87f61d96.Emscripten.clang"
  },
  "schemaVersion": "3.4.13",
  "updatedAt": "2023-04-03T02:12:59.567Z",
  "networkType": "ethereum",
  "devdoc": {
    "kind": "dev",
    "methods": {},
    "version": 1
  },
  "userdoc": {
    "kind": "user",
    "methods": {},
    "version": 1
  }
}